:10000000000001200911000073110000F71000002A
:100010002711000027110000271100002711000000
:1000200027110000271100002711000027110000F0
:1000300027110000271100002711000027110000E0
:1000400027110000271100002711000027110000D0
:1000500027110000271100002711000027110000C0
:1000600027110000271100002711000027110000B0
:1000700027110000271100002711000027110000A0
:0C008000271100002711000027110000CC
:10008C00F0B581B0514F01200090384658380468C3
:10009C00384650380460394648390C60210436D54E
:1000AC000099490401604A4E304600F08BFC002553
:1000BC00304629462A4600F0EFFF381F45490160BB
:1000CC00454E3068002802D0804735601FE0434819
:1000DC00056800E02D68002D09D0287A0007F9D5B5
:1000EC00EB682A690820002198470028F2D001F01B
:1000FC001BF83B494A78521E4A704978002904D1B2
:10010C0038490A6802239A430A6000F0FFFF364D13
:10011C000A26264016D0009BD803394620390A6897
:10012C009A430A60391F0A682A400A602F490A68F4
:10013C000F231B039A4302430A6000F0EDFB384681
:10014C004C38066020070ED500F0EEFF39682940C8
:10015C00396039686A1C0A433A6000F0D7FF3846A8
:10016C004C3808210160224D296800292CD02046EA
:10017C008847002828D0002028600098F8601D4887
:10018C00016804220A4302601448046800E02468F1
:10019C00002C09D0207AC006F9D5E368226910201A
:1001AC00002198470028F2D000F0BEFF0C494A7895
:1001BC00521E4A704978002904D10A490A68022360
:1001CC009A430A6000F0A2FF01B0F0BDA4100040F9
:1001DC00AC00002011000380A000002030010020A2
:1001EC003801002098000020FFFFFF7F1C11004009
:1001FC00940000202C000040F0B583B00027F84399
:10020C0001903B4C3B480125056000F08DFF2168B7
:10021C00394A00951570394A1770394A16688C1B83
:10022C0000F074FF04E00298241AAC422F4628D345
:10023C000297F61933480768002F019DF3D0019DF2
:10024C0003E005463F68002FEDD0387D0028F9D03B
:10025C00F868B0420CD13969F8693A69002A03D0C0
:10026C00FA685118F96001E000213975B9698847BD
:10027C00387D0028E6D0F868801BA842E1D32846D8
:10028C00DFE700F051FF07461C480078012816D123
:10029C001C480068002811D0019D03E00D46006841
:1002AC0000280CD0017D0029F9D0017D0029F6D061
:1002BC00C168891BA942F1D32946EFE7019D124879
:1002CC00854200D30546AC19094D0098686420207E
:1002DC0000F041FFEC610A480460002006490870F8
:1002EC000A480660384600F011FF03B0F0BDC04666
:1002FC0004210240542002403D0100203E01002018
:10030C004001002028010020FFFFBFFF4401002016
:10031C00F0B581B000F008FF044600F011FF042195
:10032C000140800711D44D424D4100F031FE0028B0
:10033C0062D0344E344A35490F681168002F09D009
:10034C000023FA0708D1DB430CE0002954D100F05C
:10035C00CDFE51E0334641E02B4A926C521AB24228
:10036C0000D81346BA0708D5274AD26C521AB242A3
:10037C0000D90022934200D313467A070CD5224AA7
:10038C00126D8E00921B1F4EB24201D8920800E0F3
:10039C000022934200D313463A070CD51A4A526DE9
:1003AC008E00921B174EB24201D8920800E0002238
:1003BC00934200D31346FA060CD5134A926D374676
:1003CC008E00921BBA4201D8920800E000229342A0
:1003DC0000D31346FF22F63293420BD30C4D2E68FA
:1003EC00581800F013F9F00706D0286805210143CE
:1003FC00296001E00540AAD1204600F087FE01B03B
:10040C00F0BDC046FFFFBFFF042102404420024064
:10041C0010E000E0F0B581B02D480178002954D1EE
:10042C00012606702B4841684A1E0B4693412A4A06
:10043C0013702A4A116080682949086029482A4AA1
:10044C00132500242946234600F0F4FB412000012B
:10045C00032100F063FEF70338460A3023494C3978
:10046C000860284600F07BFE2148224A20212346C2
:10047C0000F0E0FB204806608660204806602048BB
:10048C00C168204A0A40C26001680F2212039143DE
:10049C00C919016000F072FE01467D20800000F059
:1004AC00FDFC0246184D19492846234600F01CF95C
:1004BC0000F032FA284600F079FB0C4A1068F1077C
:1004CC0001431160124810210160002001B0F0BD01
:1004DC00A5000020A0110000A60000209C00002018
:1004EC00A0000020F00000208D000000A4100040AF
:1004FC000C010020411100005820004060200240F7
:10050C001C11004000F0FFFFAC000020A90D000002
:10051C0000580040F0B581B03548056800E02D6802
:10052C00002D0CD0287AC007F9D0EB682A6901207D
:10053C000024214698470028F1D0E4434AE02D4995
:10054C002D48026C7F251540D20BFE261640731BDE
:10055C000024AE4200D223460A681204150F012271
:10056C00102B164600D82646032D174600D82746D2
:10057C003E407442082D33D20A2B34D2002A0FD0BD
:10058C000B680C680F252D03AC4312039A182A40F4
:10059C00A2180A60014624390A6801239A430A60AA
:1005AC00014608390A68154B1A400A60016819405F
:1005BC00016000240460EFF31480114D286084F373
:1005CC0014881048016820468847286880F31488EE
:1005DC0000F0A2F90C4800210170204601B0F0BDDA
:1005EC0022460A2BCAD32246002AC9D1D8E7C046D4
:1005FC00300100201C110040A8100040FFFFFF7FBD
:10060C00480100204C00000FA7000020F0B589B075
:10061C0003902E4F2E4A2F480168012300939943D3
:10062C00016010680290786801902B4D04A829464F
:10063C000CC90CC04CC94CC02848042100F06EFDFC
:10064C002026304600F087FD38463C380068244CA4
:10065C00A169039A101AB938C0084018A062FFF7B4
:10066C0059FF03900098E06060652068304600F008
:10067C0072FD1B21194800F051FD3868012805D086
:10068C003868012802D038680128F6D104A806C8B9
:10069C0006C50EC80EC5019878600D480299016018
:1006AC0000F0ACFB0F48046800E02468002C09D073
:1006BC00207A4007F9D5E368226904200021984785
:1006CC000028F2D0039809B0F0BDC046402102408A
:1006DC004420024010E000E04C21024044040000A1
:1006EC000020004030010020F0B581B00446002805
:1006FC0048D0002B00D1254B58682061A260A16125
:10070C009868E061002020751D4600F0AFF9204884
:10071C00214600F0A3FC2878002833D01D4D00F0B2
:10072C0003FD1D490A782968002A07D0A2685118D0
:10073C00E160012121751B4A117021E0174B1A68E9
:10074C008F1A174E32681B68D31A9F4206D9296834
:10075C00A2685118E1600121217511E0A7687B188E
:10076C00E36001232375511A8F4209D2E7686B6449
:10077C0020210090084600F0EEFC0098EF613760F5
:10078C0000F0C4FC204601B0F0BDC046941100003E
:10079C0028010020042102403D01002044010020DA
:1007AC00400100203E010020F0B583B00246103A13
:1007BC0004D31446102805D2244E04E00446083C09
:1007CC001028F9D3224EA308A407E40EFF25A54058
:1007DC000F2809D100AF58C7204C27680226374094
:1007EC002368B34323600AE0202A1ED200AF58C707
:1007FC00184B1F68012393401F40174E3360009B1A
:10080C009B00029CE658AE43C0252940019DA9409F
:10081C003143E150002F10D00F2810D10F48016840
:10082C0002220A43026003B0F0BD98003258AA437A
:10083C00C0231940A1401143315003B0F0BD012039
:10084C0090400449086003B0F0BDC0461CED00E0C8
:10085C0000E400E000E100E080E100E010E000E0F6
:10086C00F0B501210A0203040DD410421AD102463C
:10087C000020920306D5234A936E0A2B3AD12548C1
:10088C0050640846F0BD4802831C1D4C2361E16195
:10089C001C4BD966A061002020601D1F2A602160BE
:1008AC001A60F0BD164CA06800281DD4174F184DC7
:1008BC002E682860BB1B01DC134BF318952B13DC43
:1008CC003B1A01D8104BC318952B0DDC801BC3179A
:1008DC005840C01A952807D80A4A101F49040160CD
:1008EC00116000202860F0BD0020206021600549C7
:1008FC000A60F0BD49040A2393661160F0BDC0463E
:10090C000012004058100040A01CE9FF60E31600E4
:10091C009000002080841E80F0B581B0224C2546CA
:10092C001C3D2868C00729D1204EA660204F39688D
:10093C0042208847301DA0601E4820603968062080
:10094C00884720464C384021016021680120014332
:10095C002160216881432160214658390A6852067A
:10096C0005D40A68520602D409684906F4D52168F0
:10097C00114A0A40226029680143296000F0D4FB27
:10098C000E490A68022313430B600D494A78521C26
:10099C004A7000F0BBFB20464C380121C9030160B2
:1009AC00483C216001B0F0BDA01000400D0000805B
:1009BC009400000F00000380FFFFFE7F98000020D2
:1009CC0038010020F0B581B0044600F0ADFB0021E9
:1009DC0021751F4A1278012A03D1234901220A707A
:1009EC0032E0E2681B4B1B689A422DD11A4F3D68CE
:1009FC001A4C2368EB1A2668921B934224D2C943E3
:100A0C00174A00E019461268002A0BD0137D002B00
:100A1C00F9D0137D002BF6D0D3685B1B8B42F1D33E
:100A2C000B46EFE73C4606460E48814200D3014692
:100A3C004F1901206064202000F08DFBE761054810
:100A4C00076006480560304600F060FB01B0F0BD61
:100A5C003D010020400100200421024044010020FF
:100A6C0028010020FFFFBFFF3E010020F0B581B040
:100A7C001B480078002830D11A4805681A4E012707
:100A8C00376000248460F76018481949224600F04A
:100A9C00F7FA18481B2100F041FB7760164800F06C
:100AAC0011FB1648056016482818164908600D46B3
:100ABC0015480470154804700948077000F034FBA1
:100ACC0004462E68074D6F64202000F044FBEE6155
:100ADC000C480660204600F019FB01B0F0BDC04682
:100AEC00A400002004210240542002400C010020EC
:100AFC0005020000440400002801002044010020ED
:100B0C00FFFFBFFF400100203D0100203E010020FF
:100B1C00002A49D084468B071CD1830722D1102A86
:100B2C0008D370B4103A78C978C0103AFBD270BCB4
:100B3C00103238D0042A2CD3082A05D30C2A01D31E
:100B4C0008C908C008C908C008C908C092072AD03B
:100B5C00920F22E00B780370491C401C521E22D0CD
:100B6C008B07F7D1C30714D18307D8D0121F12D328
:100B7C0008C903801B0C4380001D121FF8D20AE029
:100B8C0008C903701B0A43701B0A83701B0AC370CD
:100B9C00001D121FF4D2121D05D00B780370491CD6
:100BAC00401C521EF9D1604670477047F0B581B0B9
:100BBC0004461B4D00F0B8FA1A490A782968002A35
:100BCC0007D0A2685118E16001212175184A1170F3
:100BDC0021E0154B1A688F1A144E32681B68D31A11
:100BEC009F4206D92968A2685118E160012121753C
:100BFC0011E0A7687B18E36001232375511A8F421B
:100C0C0009D2E7686B6420210446084600F0A3FA79
:100C1C002046EF61376000F079FA01B0F0BDC046B4
:100C2C00042102403D01002044010020400100202D
:100C3C003E01002070B584B004460020002C0CD07E
:100C4C000D46002B0BD05968CEB2FF2E0ED0154E90
:100C5C003668AE420CD0C0290AD104B070BD002059
:100C6C000190C043029001AB0120187280205860A3
:100C7C00A8000D490C5062601868A06025600B49F3
:100C8C0028461E4600F0E6F831792846FFF78CFD21
:100C9C00307A002802D0284600F0A6F9204604B08D
:100CAC0070BDC0468C0000200000002045100000E4
:100CBC00F8B5451C00780023082B32D02F78C207DA
:100CCC000CD16A780F241440E41C122C0BD1022492
:100CDC002E57F4B2002E08D4EE1C0EE06D1C4A1CEC
:100CEC000F7011461AE0AE1C08E02E1DED78009531
:100CFC007F252C40009DED012C1912343D01120969
:100D0C005219094DAA420ED0D243002C05D08D5C4D
:100D1C004F1C0D70641E3946F7E7354640085B1CC6
:100D2C00CAE72846C5E7F8BDFF0F0000B0B5144C64
:100D3C000125E56413481449016000F0F5F91349E5
:100D4C000A68022313430B6011494A78521C4A70FB
:100D5C0000F0DCF900F0E8F9216809040DD469020F
:100D6C008A1C0C4B1A61DD610B4A156099610021DC
:100D7C001960290221611D60616100F0C7F9B0BDE5
:100D8C0044100040940000206D08000098000020E2
:100D9C003801002000120040C4100040F0B581B0B2
:100DAC00144C0F277D060520460600F0BDF921687E
:100DBC002940B1421AD1E26A39038A430121CB039B
:100DCC00D218E2622246503A0B4B136023682B4038
:100DDC00B34207D123682B40B34203D123682B4085
:100DEC00B342F3D01368C9078B43136000F08EF93C
:100DFC0001B0F0BDF01000401200018012480268F2
:100E0C0012490B8849881943920711D4002916D02E
:100E1C00022282600268920705D40268920702D40B
:100E2C0002689207F6D5012081430948016070479A
:100E3C0001220B469343064A1360002900D07047E9
:100E4C00022141617047C0460C0002404C01002059
:100E5C0004000840F0B50F4B1C680F4A944216D0A2
:100E6C001C680025661967595319575177685F60DC
:100E7C00B7689F60F768DF6037691F6177695F61EA
:100E8C00B6699E611C358C2DECD1024B1A6080002A
:100E9C001150F0BD08ED00E0000200201CB50A0066
:100EAC0017D000230124E407A04200D2040094428E
:100EBC0001D95200FBE790425B41904200D3801A6B
:100ECC00914201D25208F6E7190002000800110005
:100EDC001CBD01000020FFF768FE1CBDFFF79AFA4D
:100EEC00FFF724FF0A48016801220A4302600948FF
:100EFC000178002909D000BE0178002905D000BE78
:100F0C000178002901D000BEF2E7034800F01EF979
:100F1C0014000040A80000200080000070B50A48B2
:100F2C000A4C84420CD00A4D0A4EB54208D02A68AD
:100F3C006968501C12789200A25890470835F4E763
:100F4C0000BF00BF70BDC046D0110000C41100002E
:100F5C00D8110000E81100000F2806D00E280BD184
:100F6C00094801680122D20603E007480168012202
:100F7C0052060A430260704710381F2803D801211B
:100F8C00814002480160704704ED00E080E200E01F
:100F9C000848816F03220A40012A09D106490968D1
:100FAC00490E0068012252040240500C0840704760
:100FBC000120704748100040E0100040064841787E
:100FCC00032900D880300078FD2804D30348044955
:100FDC0001600449416070472F03004E1811004016
:100FEC00E3887F09E3387F490F2805D1074801685A
:100FFC0002220A430260704710381F2803D80121CF
:10100C00814001480160704700E100E010E000E021
:10101C00084880F3088800BF00BF00F0B3F8002830
:10102C0001D0FFF77BFF0020FFF758FF012000F0F5
:10103C00A2F8C0460000012080B506480068C0B286
:10104C00800005490858002802D04168806888470C
:10105C0080BDC04604ED00E000000020B0B50C4699
:10106C00054600F061F80021216069686160002983
:10107C002A4600D00A4614606C6000F047F8B0BDF8
:10108C00EFF3108372B641608260002B00D0704782
:10109C00EFF3108062B6704770B514460D460646E5
:1010AC0000F042F8B561F46100F030F870BD032235
:1010BC008058002805D0401E4A1C00230B70114696
:1010CC00F7E7704710B5044600F02EF800212160B8
:1010DC00616000F01BF810BD80B50B46032142582F
:1010EC00C11D184600F040F880BDFEE702480068BC
:1010FC00400700D430BF704798000020EFF31080F9
:10110C0072B6FFF75BFFFFF783FFFEE7002800D006
:10111C007047EFF3108062B67047FEE7014A8150CA
:10112C007047C04600500240EFF3108072B6411E6B
:10113C008841704701480168816070474C2000402D
:10114C00014800687047C04698000020026841685A
:10115C00104600F00DF880B5FFF7FEFE80BD80B59F
:10116C00FFF742FF80BDFEE780B5FFF7D1FC80BDE5
:10117C0080F30888084700F003F8FEE70120704769
:08118C0000BF7047012070470D
:10119400000000000000000000000000000000004B
:1011A4001D0300000000000040060800800608003F
:1011B400001500000F790E08CF0901FFF0000000B0
:1011C400BD0C0000E5100000BB1000000200000090
:1011D400A4000000B411000000000020D0110000A1
:0411E400AC0000203B
:020000044E02AA
:10000000FCFFFFFF00000000000000000F2D6188D2
:10001000FFFFFFFFFFFFFFFFAAAAAAAA0000000040
:10002000FFFFFFFFFFFFFFFF00000000FFFFFFFFDC
:1000300000000000000000F00000000000000000D0
:1000400000000000000000000000000000000000B0
:1000500000000000000000000000000000000000A0
:100060000000000000000000000000000000000090
:100070000000000000000000000000000000000080
:10074000000000000000000000000000B7DF14B748
:100750000000000000000000000000000000000099
:100760000000000000000000000000000000000089
:100770000000000000000000000000000000000079
:100780000000000000000000000000000000000069
:100790000000000000000000000000000000000059
:1007A0000000000000000000000000000000000049
:1007B0000000000000000000000000000000000039
:1007C0000000000000000000000000000000000029
:1007D0005AA500000101020305080D156DD7E43686
:1007E000EBF431DF95AE15EE03BA8EE4C4C63FD804
:1007F000453F675E74D7C2012C9058E5A2947252AF
:0400000300001109DF
:00000001FF
